{"abi":[{"type":"function","name":"balanceOf","inputs":[{"name":"_owner","type":"address","internalType":"address"}],"outputs":[{"name":"balance","type":"uint256","internalType":"uint256"}],"stateMutability":"view"},{"type":"function","name":"decimals","inputs":[],"outputs":[{"name":"","type":"uint8","internalType":"uint8"}],"stateMutability":"pure"},{"type":"function","name":"name","inputs":[],"outputs":[{"name":"","type":"string","internalType":"string"}],"stateMutability":"view"},{"type":"function","name":"totalSupply","inputs":[],"outputs":[{"name":"","type":"uint256","internalType":"uint256"}],"stateMutability":"pure"},{"type":"function","name":"transfer","inputs":[{"name":"_to","type":"address","internalType":"address"},{"name":"_value","type":"uint256","internalType":"uint256"}],"outputs":[],"stateMutability":"nonpayable"}],"bytecode":{"object":"0x60806040526040518060400160405280600c81526020017f4d616e75616c20546f6b656e0000000000000000000000000000000000000000815250600190816100489190610297565b50348015610054575f5ffd5b50610366565b5f81519050919050565b7f4e487b71000000000000000000000000000000000000000000000000000000005f52604160045260245ffd5b7f4e487b71000000000000000000000000000000000000000000000000000000005f52602260045260245ffd5b5f60028204905060018216806100d557607f821691505b6020821081036100e8576100e7610091565b5b50919050565b5f819050815f5260205f209050919050565b5f6020601f8301049050919050565b5f82821b905092915050565b5f6008830261014a7fffffffffffffffffffffffffffffffffffffffffffffffffffffffffffffffff8261010f565b610154868361010f565b95508019841693508086168417925050509392505050565b5f819050919050565b5f819050919050565b5f61019861019361018e8461016c565b610175565b61016c565b9050919050565b5f819050919050565b6101b18361017e565b6101c56101bd8261019f565b84845461011b565b825550505050565b5f5f905090565b6101dc6101cd565b6101e78184846101a8565b505050565b5b8181101561020a576101ff5f826101d4565b6001810190506101ed565b5050565b601f82111561024f57610220816100ee565b61022984610100565b81016020851015610238578190505b61024c61024485610100565b8301826101ec565b50505b505050565b5f82821c905092915050565b5f61026f5f1984600802610254565b1980831691505092915050565b5f6102878383610260565b9150826002028217905092915050565b6102a08261005a565b67ffffffffffffffff8111156102b9576102b8610064565b5b6102c382546100be565b6102ce82828561020e565b5f60209050601f8311600181146102ff575f84156102ed578287015190505b6102f7858261027c565b86555061035e565b601f19841661030d866100ee565b5f5b828110156103345784890151825560018201915060208501945060208101905061030f565b86831015610351578489015161034d601f891682610260565b8355505b6001600288020188555050505b505050505050565b6105e2806103735f395ff3fe608060405234801561000f575f5ffd5b5060043610610055575f3560e01c806306fdde031461005957806318160ddd14610077578063313ce5671461009557806370a08231146100b3578063a9059cbb146100e3575b5f5ffd5b6100616100ff565b60405161006e9190610346565b60405180910390f35b61007f61018b565b60405161008c919061037e565b60405180910390f35b61009d61019b565b6040516100aa91906103b2565b60405180910390f35b6100cd60048036038101906100c89190610429565b6101a3565b6040516100da919061037e565b60405180910390f35b6100fd60048036038101906100f8919061047e565b6101e8565b005b6001805461010c906104e9565b80601f0160208091040260200160405190810160405280929190818152602001828054610138906104e9565b80156101835780601f1061015a57610100808354040283529160200191610183565b820191905f5260205f20905b81548152906001019060200180831161016657829003601f168201915b505050505081565b5f68056bc75e2d63100000905090565b5f6012905090565b5f5f5f8373ffffffffffffffffffffffffffffffffffffffff1673ffffffffffffffffffffffffffffffffffffffff1681526020019081526020015f20549050919050565b5f6101f2836101a3565b6101fb336101a3565b6102059190610546565b9050815f5f3373ffffffffffffffffffffffffffffffffffffffff1673ffffffffffffffffffffffffffffffffffffffff1681526020019081526020015f205f8282546102529190610579565b92505081905550815f5f8573ffffffffffffffffffffffffffffffffffffffff1673ffffffffffffffffffffffffffffffffffffffff1681526020019081526020015f205f8282546102a49190610546565b92505081905550806102b5846101a3565b6102be336101a3565b6102c89190610546565b146102d1575f5ffd5b505050565b5f81519050919050565b5f82825260208201905092915050565b8281835e5f83830152505050565b5f601f19601f8301169050919050565b5f610318826102d6565b61032281856102e0565b93506103328185602086016102f0565b61033b816102fe565b840191505092915050565b5f6020820190508181035f83015261035e818461030e565b905092915050565b5f819050919050565b61037881610366565b82525050565b5f6020820190506103915f83018461036f565b92915050565b5f60ff82169050919050565b6103ac81610397565b82525050565b5f6020820190506103c55f8301846103a3565b92915050565b5f5ffd5b5f73ffffffffffffffffffffffffffffffffffffffff82169050919050565b5f6103f8826103cf565b9050919050565b610408816103ee565b8114610412575f5ffd5b50565b5f81359050610423816103ff565b92915050565b5f6020828403121561043e5761043d6103cb565b5b5f61044b84828501610415565b91505092915050565b61045d81610366565b8114610467575f5ffd5b50565b5f8135905061047881610454565b92915050565b5f5f60408385031215610494576104936103cb565b5b5f6104a185828601610415565b92505060206104b28582860161046a565b9150509250929050565b7f4e487b71000000000000000000000000000000000000000000000000000000005f52602260045260245ffd5b5f600282049050600182168061050057607f821691505b602082108103610513576105126104bc565b5b50919050565b7f4e487b71000000000000000000000000000000000000000000000000000000005f52601160045260245ffd5b5f61055082610366565b915061055b83610366565b925082820190508082111561057357610572610519565b5b92915050565b5f61058382610366565b915061058e83610366565b92508282039050818111156105a6576105a5610519565b5b9291505056fea2646970667358221220b36984a9242742c994a6aefe1e35bab3f765c07562b0a32e6bd075254b2ff3ff64736f6c634300081c0033","linkReferences":{}},"methodIdentifiers":{"balanceOf(address)":"70a08231","decimals()":"313ce567","name()":"06fdde03","totalSupply()":"18160ddd","transfer(address,uint256)":"a9059cbb"},"id":5}